:020000040800F2
:10000000A80400209D010008190F0008390B000802
:10001000150F0008A90200081D10000800000000CC
:100020000000000000000000000000001D0F00089C
:10003000AD020008000000001B0F00081F0F0008A1
:10004000B7010008B7010008B7010008B7010008B0
:10005000B7010008B7010008B7010008B7010008A0
:10006000B7010008B7010008B7010008B701000890
:10007000B7010008B7010008B7010008B701000880
:10008000B7010008B7010008B7010008B701000870
:10009000B7010008B7010008B7010008B701000860
:1000A000B7010008B7010008B7010008B701000850
:1000B000F90F0008B7010008B7010008B7010008F0
:1000C000B7010008B7010008B7010008B701000830
:1000D000B7010008B7010008B7010008B701000820
:1000E000B7010008B7010008B7010008B701000810
:1000F000B7010008B7010008B7010008B701000800
:10010000B7010008B7010008B7010008B7010008EF
:10011000B7010008B7010008B7010008B7010008DF
:10012000B7010008B7010008B7010008B7010008CF
:10013000B7010008B7010008B7010008B7010008BF
:10014000B7010008B7010008B7010008B7010008AF
:10015000B7010008B7010008B7010008B70100089F
:10016000B7010008B7010008B7010008B70100088F
:10017000B7010008B7010008B7010008000000003F
:10018000B7010008B7010008DFF80CD000F07AF8DA
:1001900000480047C5110008A80400200648804711
:1001A00006480047FEE7FEE7FEE7FEE7FEE7FEE75C
:1001B000FEE7FEE7FEE7FEE7DD0F00088901000825
:1001C0002DE9F05F0546002092469B46884606468C
:1001D000814640241BE0284641464746224600F01F
:1001E00041F853465A46C01A914110D31146184659
:1001F000224600F028F82D1A67EB01084F462246E8
:100200000120002100F01FF817EB00094E41201ECD
:10021000A4F10104DFDC484631462A464346BDE8E6
:10022000F09FD2B201E000F8012B491EFBD27047CB
:100230000022F6E710B513460A4604461946FFF7B2
:10024000F0FF204610BD202A04DB203A00FA02F11C
:10025000002070479140C2F1200320FA03F31943B4
:1002600090407047202A04DB203A21FA02F0002156
:10027000704721FA02F3D040C2F1200291400843B6
:1002800019467047064C074D06E0E06840F0010350
:1002900094E8070098471034AC42F6D3FFF778FF94
:1002A000E41300080414000800BFFEE7704770471D
:1002B0000148006870470000000000200348006803
:1002C000034909780844014908607047000000208C
:1002D0000800002010B50D48006840F400700B497C
:1002E00008600846006840F48060086008460068BE
:1002F00040F480700860032000F092F8002000F0C5
:1003000007F800F02BF8002010BD0000003C024070
:1003100070B504460E4800784FF47A71B1FBF0F0E6
:100320000C490968B1FBF0F5284600F0EBFB08B179
:10033000012070BD102C07D200222146501E00F073
:1003400031F80548046001E00120F2E70020F0E701
:10035000080000200C0000200400002008B500BFA9
:10036000002000900E48006840F480400C4908606E
:100370000846006800F48040009000BF00BF00BF46
:1003800000200090081F006840F08050091F08609E
:100390000846006800F08050009000BF00BF08BD14
:1003A000443802402DE9F05F80460D46164600278E
:1003B00000F036FE074639462A46334601F007006C
:1003C000C0F1070ABAF1040F02D94FF0040A01E0A4
:1003D000C0F1070AD14600F1040ABAF1070F02D2B0
:1003E0004FF0000A01E0A0F1030AD4464FF0010AE1
:1003F0000AFA09FAAAF1010A0AEA020A0AFA0CFA46
:100400004FF0010B0BFA0CFBABF1010B0BEA030BEA
:100410004AEA0B042146404600F00AFEBDE8F09F80
:1004200000BF00F00702064B19684FF6FF031940A2
:10043000044B0B4343EA0221014B196000BF704794
:100440000CED00E00000FA0570B504460D460CB94D
:10045000012070BD5848006800F00F00A84209D282
:1004600055490D700846006800F00F00A84201D001
:100470000120EEE7207800F0020002281DD120784C
:1004800000F00400042805D14C48006840F4E05016
:100490004A490860207800F00800082805D147483C
:1004A000006840F46040454908604448006820F016
:1004B000F000A168084341490860207800F001007D
:1004C000A8B36068012807D13C4808380068C0F329
:1004D0004040B8B90120BCE76068022802D06068DB
:1004E000032807D1354808380068C0F3406048B990
:1004F0000120AEE7314808380068C0F3400008B971
:100500000120A6E72D48006820F003006168084339
:100510002A490860FFF7CCFE064609E0FFF7C8FE4F
:10052000801B41F28831884202D9032091E707E01D
:100530002248006800F00C006168B0EB810FEDD13B
:100540001D48006800F00F00A84209D91A490D7033
:100550000846006800F00F00A84201D0012078E7AB
:10056000207800F00400042807D11448006820F423
:10057000E050E168084311490860207800F0080065
:10058000082808D10D48006820F46040216940EA3D
:10059000C1000A49086000F019F808490968C1F368
:1005A0000311074A515CC8400649086006480068C4
:1005B000FFF7AEFE00204CE7003C02400838024046
:1005C000CC1300080C000020040000202DE9F047A7
:1005D000002400250026A1462548006800F00C00F4
:1005E00020B1042805D008283AD105E0DFF884902E
:1005F00039E0DFF8849036E01D48001F006800F005
:100600003F041B48001F006800F4800078B11A48BE
:100610001749091F0968C1F38811A0FB0170014641
:10062000224600233846FFF7CBFD05460EE0114871
:100630000F49091F0968C1F38811A0FB0170014629
:10064000224600233846FFF7BBFD05460848001F39
:100650000068C0F30140401C4600B5FBF6F902E01B
:10066000DFF8109000BF00BF4846BDE8F0870000EB
:10067000083802400024F40000127A00F8B504465D
:100680000CB90120F8BD207800F00100002874D0DA
:10069000F948006800F00C0004280DD0F648006806
:1006A00000F00C00082813D1F348001F006800F484
:1006B0008000B0F5800F0BD1EF4808380068C0F318
:1006C0004040002859D06068002856D10120D9E761
:1006D00000BF6068B0F5803F08D1E748083800687F
:1006E00040F48030E449083908601EE06068B0F5E5
:1006F000A02F0DD1E0480838006840F48020DE4982
:10070000083908600846006840F4803008600CE052
:10071000D9480838006820F48030D7490839086083
:100720000846006820F48020086000BF606890B12F
:10073000FFF7BEFD054606E0FFF7BAFD401B642843
:1007400001D903209EE7CC4808380068C0F3404038
:100750000028F1D011E0FFF7ABFD054606E0FFF7FA
:10076000A7FD401B642801D903208BE7C248083845
:100770000068C0F340400028F1D1207800F002006A
:1007800002285FD1BC48006800F00C0058B1BA489C
:10079000006800F00C0008281CD1B748001F006852
:1007A00000F48000B0B9B44808380068C0F34000D5
:1007B00020B1E068012801D0012063E7AE48083885
:1007C000006820F0F800216940EAC100AA49083910
:1007D000086037E0E06800B30120A8490860FFF72F
:1007E00067FD054606E0FFF763FD401B022801D9BF
:1007F000032047E7A04808380068C0F340000028FD
:10080000F1D09D480838006820F0F800216940EADE
:10081000C10099490839086014E000209749086030
:10082000FFF746FD054606E0FFF742FD401B0228A4
:1008300001D9032026E7904808380068C0F340003B
:100840000028F1D1207800F0080008282CD1606938
:10085000A8B101208A490860FFF72AFD054606E095
:10086000FFF726FD401B022801D903200AE7824832
:100870006C300068C0F340000028F1D014E0002084
:100880007F490860FFF714FD054606E0FFF710FDFD
:10089000401B022801D90320F4E677486C30006839
:1008A000C0F340000028F1D1207800F004000428B3
:1008B00070D1002770483830006800F0805090B93F
:1008C00000BF002000906C483830006840F0805035
:1008D0006949383108600846006800F0805000908F
:1008E00000BF00BF01276748006800F48070B0B9FE
:1008F0006448006840F4807062490860FFF7D8FCE3
:10090000054606E0FFF7D4FC401B022801D903206E
:10091000B8E65C48006800F480700028F2D000BFA0
:10092000A068012808D154486830006840F00100F0
:100930005149683108601DE0A06805280DD14E4876
:100940006830006840F004004B4968310860084690
:10095000006840F0010008600CE04748683000681B
:1009600020F001004449683108600846006820F022
:100970000400086000BFA068A8B1FFF799FC054615
:1009800009E0FFF795FC401B41F28831884202D90B
:10099000032077E626E0384868300068C0F340005E
:1009A0000028EED013E0FFF783FC054608E0FFF7D0
:1009B0007FFC401B41F28831884201D9032061E667
:1009C0002D4868300068C0F340000028EFD1012FA7
:1009D00007D129483830006820F080502649383146
:1009E000086000BFA069002845D02348006800F0D7
:1009F0000C0008285DD0A069022845D100201F49BD
:100A00000866FFF755FC054606E0FFF751FC401B62
:100A1000022801D9032035E6174808380068C0F3DA
:100A200040600028F1D1D4E907010843616A40EA37
:100A300081110122A06AC2EB500041EA00412C2042
:100A4000005D41EA00600C49091F086001200B4964
:100A50000866FFF72DFC054606E0FFF729FC401B62
:100A6000022801D903200DE6034808380068C0F3C6
:100A700040600028F1D03FE00838024000004742C3
:100A8000800E47420070004000201C490866FFF7B6
:100A90000FFC054606E0FFF70BFC401B022801D9BE
:100AA0000320EFE516480068C0F340600028F2D14B
:100AB00022E0A069012800D1E4E51148001D066884
:100AC00006F48001E069814214D106F03F01206AFA
:100AD00081420FD147F6C0703040616A884209D127
:100AE00006F44031A06A814204D106F07061E06AE8
:100AF000814201D00120C5E50020C3E50000474246
:100B00000038024070B504462546681EB0F1807F6B
:100B100001D301200FE0681E4FF0E02148610F2152
:100B20004FF0FF3000F084FA00204FF0E0218861A0
:100B300007200861002070BD00BFFEE708B5054929
:100B400009680143034A1160114609680140009198
:100B500000BF08BD30380240F0B502460B46002405
:100B60000021186890FAA0F0B0FA80F48AE001251C
:100B7000A540186800EA050100297DD058680128C1
:100B800002D0586802281CD19868956891FAA1F69D
:100B9000B6FA86F677000326BE40B54391FAA1F671
:100BA000B6FA86F6760000FA06F63543956000BF81
:100BB000D86855688D4301FB00F63543556000BF8A
:100BC00000BF1869D56891FAA1F6B6FA86F67700E3
:100BD0000326BE40B54391FAA1F6B6FA86F6760032
:100BE00000FA06F63543D56000BF5868022831D1B7
:100BF00091FAA1F0B0FA80F0082814D25869156A69
:100C000091FAA1F6B6FA86F6B7000F26BE40B543B4
:100C100091FAA1F6B6FA86F6B60000FA06F6354362
:100C2000156200BF16E05869556A0E0A96FAA6F6D4
:100C3000B6FA86F6B7000F26BE40B5430E0A96FAFE
:100C4000A6F6B6FA86F6B60000FA06F63543556201
:100C500000BF00BF5868156891FAA1F6B6FA86F68B
:100C600077000326BE40B54391FAA1F6B6FA86F6A0
:100C7000760000FA06F600E003E03543156000BF99
:100C800000BF641C1868E04000287FF470AFF0BD1E
:100C900010B5024613682C4882420ED0B2F1804F44
:100CA0000BD02A48824208D02948824205D02948E0
:100CB000824202D02848824204D123F070004C685E
:100CC00040EA04032048824220D0B2F1804F1DD078
:100CD0001E4882421AD01E48824217D01D488242C6
:100CE00014D01D48824211D01C4882420ED01C48AC
:100CF00082420BD01B48824208D01B48824205D05A
:100D00001A48824202D01A48824204D123F4407029
:100D1000CC6840EA040313608868D06200BF08888A
:100D2000906200BF0848824202D00B48824203D141
:100D3000087C106300BF00BF00BF506940F0010095
:100D4000506100BF002010BD0000014000040040C1
:100D500000080040000C0040000401400040014039
:100D6000004401400048014000180040001C0040C1
:100D70000020004000B587B0182101A8FFF758FAFD
:100D80008020FFF7DBFE0120FFF7D8FE0220FFF7EF
:100D9000D5FE4FF480700E49886100BF019001209C
:100DA000029002200390002004900120059001A9E8
:100DB0000748FFF7D1FE4FF4007001900020029029
:100DC0000120059001A90248FFF7C6FE07B000BD4B
:100DD000000402402DE9F04186B0142101A8FFF77C
:100DE00027FA0120484909680143474A1160114622
:100DF00009680140009100BF00BF1C21434B1B68E4
:100E0000C3F30220002425460346C3F1070CBCF1BE
:100E1000040F02D94FF0040C01E0C3F1070C674640
:100E200003F1040CBCF1070F02D24FF0000C01E0FB
:100E3000A3F1030C66464FF0010C0CFA07FCACF171
:100E4000010C0CEA040C0CFA06FC4FF0010808FA3D
:100E500006F8A8F1010808EA05084CEA080200BFF4
:100E6000002904DB1007030E2948435407E010074C
:100E7000040E26480C3001F00F031B1FC45400BFA2
:100E80001C20002809DB00F01F02012191404209CB
:100E9000920002F1E022C2F8001100BF0020ADF87C
:100EA0000400029040F2231003900020049001A956
:100EB0004FF08040FFF7ECFE00BF4FF0804000682D
:100EC00040F080004FF08041086000BF002089683A
:100ED00044F20702914301434FF08042916000BF0A
:100EE00020204106496821F070010143516000BF94
:100EF00000BF4006806820F080001146886000BF77
:100F000006B0BDE8F0810000403802400CED00E082
:100F100000E400E000BFFEE770477047704710B57F
:100F2000FFF7CCF910BD000000B593B0302107A841
:100F3000FFF77EF9142102A8FFF77AF900BF00201D
:100F400001902448006840F080502249086008461B
:100F5000006800F08050019000BF00BF00BF00207B
:100F600001901D48006840F480401B490860084615
:100F7000006800F48040019000BF00BF012007908E
:100F80000004089002200D9041050E9104210F915C
:100F9000A8211091022111910421129107A8FFF7B5
:100FA0006DFB08B1FFF783F90F2002900220039038
:100FB000002004904FF4A05005904FF4805006900C
:100FC000052102A8FFF740FA08B1FFF770F913B046
:100FD00000BD000040380240007000400548006835
:100FE00040F47000034908604FF000600149803907
:100FF0000860704788ED00E010B500BF4FF08040FA
:10100000006900F0010040B100BF6FF001004FF037
:101010008041086100BF00F01FF910BD00BFFEE76E
:1010200002480068C0F30220704700000CED00E0A9
:1010300010B5002804DB0A07130E054A135406E016
:101040000A07140E034A00F00F031B1FD45410BDEF
:1010500000E400E018ED00E002E008C8121F08C13B
:10106000002AFAD170477047002001E001C1121F29
:10107000002AFBD1704700002DE9F04387B00446F9
:10108000142102A8FFF7D4F801204A490968014356
:10109000484A1160114609680140019100BF00BF34
:1010A0001C21454B1B68C3F3022000252E46034636
:1010B000C3F10708B8F1040F02D94FF0040801E0AA
:1010C000C3F10708C44603F10408B8F1070F02D2C0
:1010D0004FF0000801E0A3F1030847464FF0010874
:1010E00008FA0CF8A8F1010808EA050808FA07F858
:1010F0004FF0010909FA07F9A9F1010909EA0609FE
:1011000048EA090200BF002904DB1007030E2B4840
:10111000435407E01007050E27480C3001F00F0379
:101120001B1FC55400BF1C20002809DB00F01F0254
:10113000012191404209920002F1E022C2F800111F
:1011400000BF0020ADF8080003901D4890FBF4F0AC
:10115000052190FBF1F004900020059002A94FF0CA
:101160008040FFF795FD00BF4FF08040006840F0E1
:1011700080004FF08041086000BF0020896844F281
:101180000702914301434FF08042916000BF20204D
:101190004106496821F070010143516000BF00BF62
:1011A0004006806820F080001146886000BF07B0CC
:1011B000BDE8F083403802400CED00E000E400E0C0
:1011C00000BD0105FFF786F8FFF7AEFEFFF7D2FD81
:1011D000FFF700FE4FF46140FFF74EFF00BF4FF0F6
:1011E0008040C06840F001004FF08041C86000BFFF
:1011F00000BF0846006840F00100086000BF00BF63
:10120000FEE7F0B5044600250FE052B104EBE10023
:10121000007801F007070126BE40304304EBE106E9
:101220003070481CC1B2681CC5B29D42EDDB084657
:10123000F0BD000028B14FF48071064A916100BFF3
:1012400006E04FF480710A04024B9A6100BF00BFB0
:10125000704700000004024070B55B48407C28B134
:101260005948007C5849497C88427CDB5648C07C00
:10127000002879DD5448807C5349C97C88427FDA54
:101280005148817C807C401C4F4A907402F11400CC
:10129000445C002510211438FEF7CAFF0323012205
:1012A00029464948FFF7ADFF054605230022294698
:1012B0004548FFF7A6FF054604F00102052329462D
:1012C0004148FFF79EFF05460523C4F34002294627
:1012D0003D48FFF796FF05460523C4F380022946E3
:1012E0003948FFF78EFF05460523C4F3C00229469F
:1012F0003548FFF786FF05460523C4F3001229464B
:101300003148FFF77EFF05460523C4F34012294606
:101310002D48FFF776FF05460523C4F380122946C2
:101320002948FFF76EFF0546E209052329462648AE
:10133000FFF767FF05460223012229462248FFF7EF
:1013400060FF05462048457400201F490874087C4A
:10135000C11700EB5171C9101B4A515C127C02F09D
:101360000702114101E00FE00AE001F001063046FA
:10137000FFF760FF1448007C401C1349087402E02A
:1013800000201149887470BD0F48007C0E49497CCB
:10139000884216DA0C49087CC11700EB5171C9105C
:1013A000094A515C127C02F00702114101F001046C
:1013B0002046FFF73FFF0448007C401C02490874A8
:1013C00000BF00BFDFE700001000002000000000A9
:1013D00000000000010203040607080900000000E5
:1013E000010203040414000800000020A40000000F
:1013F00058100008A8140008A400002004040000ED
:10140000681000080000000010000000010000004B
:101410000024F400000000000000000000000000B4
:101420000000000000000030737461746963207371
:10143000747275637420776176655F6672616D653D
:101440005F75617274205F776176655F6672616D4A
:10145000655F756172740D0A0000000000000000F5
:10146000000000000000000000000000000000007C
:10147000000000000000000000000000000000006C
:10148000000000000000000000000000000000005C
:10149000000000000000000000000000000000004C
:0814A000000000000000000044
:040000050800018965
:00000001FF
